:020000040000FA
:1000000060200020490100004D0100004F01000068
:1000100000000000000000000000000000000000E0
:10002000000000000000000000000000510100007E
:100030000000000000000000530100005501000016
:1000400057010000590100005B0100005D01000044
:100050005F01000061010000630100006501000014
:1000600067010000690100006B0100006D010000E4
:100070006F010000710100007301000075010000B4
:1000800077010000790100007B0100007D01000084
:100090007F01000081010000830100008501000054
:1000A000870100000000000000000000890100003E
:1000B0008B0100008D0100008F0100009101000004
:1000C00000F002F800F030F80CA030C8083824180E
:1000D0002D18A246671EAB4654465D46AC4201D180
:1000E00000F022F87E460F3E0FCCB6460126334282
:1000F00000D0FB1AA246AB46334318472801000044
:10010000380100000023002400250026103A01D306
:1001100078C1FBD8520700D330C100D50B607047BF
:100120001FB51FBD10B510BD00F047F81146FFF711
:10013000F7FF00F074F800F05FF803B4FFF7F2FF88
:1001400003BC00F065F8000015480047FEE7FEE735
:10015000FEE7FEE7FEE7FEE7FEE7FEE7FEE7FEE777
:10016000FEE7FEE7FEE7FEE7FEE7FEE7FEE7FEE767
:10017000FEE7FEE7FEE7FEE7FEE7FEE7FEE7FEE757
:10018000FEE7FEE7FEE7FEE7FEE7FEE7FEE7FEE747
:10019000FEE7000003480449044A054B704700008D
:1001A000C1000000600000206020002060100020DE
:1001B00060100020704770477047754600F024F8C3
:1001C000AE46050069465346C008C000854618B0D3
:1001D00020B5FFF7DFFF60BC00274908B6460026C0
:1001E000C0C5C0C5C0C5C0C5C0C5C0C5C0C5C0C5E7
:1001F000403D49008D46704710B50446C046C04694
:100200002046FFF79AFF10BD00487047000000200D
:1002100001491820ABBEFEE726000200704700BF70
:10022000FEE7000034020000000000206020000013
:0402300004010000C5
:04000005000000C136
:00000001FF
